{
  "_format": "hh-sol-artifact-1",
  "contractName": "ClaimAudit",
  "sourceName": "contracts/ClaimAudit.sol",
  "abi": [
    {
      "anonymous": false,
      "inputs": [
        {
          "indexed": true,
          "internalType": "bytes32",
          "name": "claimIdHash",
          "type": "bytes32"
        },
        {
          "indexed": false,
          "internalType": "bytes32",
          "name": "fnolHash",
          "type": "bytes32"
        },
        {
          "indexed": true,
          "internalType": "address",
          "name": "actor",
          "type": "address"
        },
        {
          "indexed": false,
          "internalType": "uint256",
          "name": "timestamp",
          "type": "uint256"
        }
      ],
      "name": "ClaimCreated",
      "type": "event"
    },
    {
      "anonymous": false,
      "inputs": [
        {
          "indexed": true,
          "internalType": "bytes32",
          "name": "claimIdHash",
          "type": "bytes32"
        },
        {
          "indexed": false,
          "internalType": "uint8",
          "name": "status",
          "type": "uint8"
        },
        {
          "indexed": false,
          "internalType": "bytes32",
          "name": "contentHash",
          "type": "bytes32"
        },
        {
          "indexed": true,
          "internalType": "address",
          "name": "actor",
          "type": "address"
        },
        {
          "indexed": false,
          "internalType": "uint256",
          "name": "timestamp",
          "type": "uint256"
        }
      ],
      "name": "ClaimStatusUpdated",
      "type": "event"
    },
    {
      "inputs": [
        {
          "internalType": "bytes32",
          "name": "claimIdHash",
          "type": "bytes32"
        },
        {
          "internalType": "bytes32",
          "name": "fnolHash",
          "type": "bytes32"
        }
      ],
      "name": "createClaim",
      "outputs": [],
      "stateMutability": "nonpayable",
      "type": "function"
    },
    {
      "inputs": [
        {
          "internalType": "bytes32",
          "name": "",
          "type": "bytes32"
        }
      ],
      "name": "lastStatus",
      "outputs": [
        {
          "internalType": "uint8",
          "name": "",
          "type": "uint8"
        }
      ],
      "stateMutability": "view",
      "type": "function"
    },
    {
      "inputs": [
        {
          "internalType": "bytes32",
          "name": "claimIdHash",
          "type": "bytes32"
        },
        {
          "internalType": "uint8",
          "name": "newStatus",
          "type": "uint8"
        },
        {
          "internalType": "bytes32",
          "name": "contentHash",
          "type": "bytes32"
        }
      ],
      "name": "updateStatus",
      "outputs": [],
      "stateMutability": "nonpayable",
      "type": "function"
    }
  ],
  "bytecode": "0x608060405234801561001057600080fd5b5061031a806100206000396000f3fe608060405234801561001057600080fd5b50600436106100415760003560e01c806322c21f351461004657806337b6bb9c1461005b578063afb4ba9c14610094575b600080fd5b61005961005436600461026b565b6100a7565b005b61007e6100693660046102a9565b60006020819052908152604090205460ff1681565b60405160ff909116815260200160405180910390f35b6100596100a23660046102c2565b6101b1565b60008381526020819052604090205460ff908116908316116101065760405162461bcd60e51b8152602060048201526013602482015272537461747573206d75737420616476616e636560681b60448201526064015b60405180910390fd5b60068260ff16111561014b5760405162461bcd60e51b815260206004820152600e60248201526d496e76616c69642073746174757360901b60448201526064016100fd565b60008381526020818152604091829020805460ff861660ff199091168117909155825190815290810183905242818301529051339185917f4836ccbe538359b636d7e61da74eae38708a21c5c8e11ef3abc1ef651a99abda9181900360600190a3505050565b60008281526020819052604090205460ff16156102075760405162461bcd60e51b8152602060048201526014602482015273436c61696d20616c72656164792065786973747360601b60448201526064016100fd565b60008281526020819052604090819020805460ff1916600117905551339083907f686fb17208cad0c2c7f81570d4740ccdbf291c458a371a0e3947da55c8ac1e9c9061025f9085904290918252602082015260400190565b60405180910390a35050565b60008060006060848603121561028057600080fd5b83359250602084013560ff8116811461029857600080fd5b929592945050506040919091013590565b6000602082840312156102bb57600080fd5b5035919050565b600080604083850312156102d557600080fd5b5050803592602090910135915056fea26469706673582212202eacf567c34ab41152a5024f9ee8aaa7f6e5f380b5361826a03d4518c54c7d8464736f6c63430008140033",
  "linkReferences": {},
  "deployedLinkReferences": {}
}